:03000000020100FA
:10010000128108758901758C4C758A00D28C120198
:100110002712015B753500D2971201811201AC12D2
:1001200001C41201DA80F212810C12811C75F00AEE
:10013000A4F912811C29FF12019B12811C75F00A7F
:10014000A4F912811C29FE12019B12811C75F00A70
:10015000A4F912811C29FD12019B2212810C12812B
:100160001C75F00AA4F912811C29F53312019B12A7
:10017000811C75F00AA4F912811C29F53412019B27
:100180002212810CEF12019B743A128102EE1201CD
:100190009B743A128102ED12019B2275F00A8424AD
:1001A00030128102E5F0243012810222ED700BEE54
:1001B000B53407EFB53303753502E5356003C297F3
:1001C00022D297227A14308DFDC28D758C4C758A9F
:1001D00000DAF3E53560021535220DBD3C0E7D00D9
:0F01E0000EBE3C087E000FBF18027F002280FE7B
:00000001FF
