:03000000020100FA
:10010000128108758901758C4C758A00D28C120198
:100110002912016C753500D297D29512019C1201FB
:10012000C71201E31201F980F212810C12811C75D1
:10013000F00AA4F912811C29FF1201B6743A128147
:100140000212811C75F00AA4F912811C29FE120109
:10015000B6743A12810212811C75F00AA4F9128158
:100160001C29FD1201B674021281122212810C1296
:10017000811C75F00AA4F912811C29F5331201B60D
:10018000743A12810212811C75F00AA4F912811CC2
:1001900029F5341201B674021281122212810CEF79
:1001A0001201B6743A128102EE1201B6743A12814B
:1001B00002ED1201B62275F00A842430128102E5A4
:1001C000F0243012810222ED700BEEB53407EFB54A
:1001D0003303753503E5356005C297C29522D29782
:1001E000D295227A14308DFDC28D758C4C758A00A3
:1001F000DAF3E53560021535220DBD3C0E7D000EAB
:0E020000BE3C087E000FBF18027F002280FE69
:00000001FF
